:020000040800F2
:10000000B0070020C1010008F31C0008C51A000851
:10001000F11C000805030008D524000800000000BA
:10002000000000000000000000000000411E000869
:100030001903000800000000F51C0008431E00081A
:10004000DB010008DB010008DB010008DB01000820
:10005000DB010008DB010008DB010008DB01000810
:10006000DB010008DB010008DB010008DB01000800
:10007000DB010008DB010008DB010008DB010008F0
:10008000DB010008DB010008DB010008DB010008E0
:10009000DB010008DB010008DB010008DB010008D0
:1000A000DB010008DB010008DB010008DB010008C0
:1000B000DB010008ED1E0008DB010008DB01000881
:1000C000DB010008DB010008DB010008DB010008A0
:1000D000DB010008DB010008DB010008C92400087F
:1000E000DB010008DB010008DB010008DB01000880
:1000F000DB010008DB010008DB010008DB01000870
:10010000DB010008DB010008391F0008DB010008E3
:10011000DB010008DB010008DB010008DB0100084F
:10012000DB010008DB010008DB010008DB0100083F
:10013000DB010008DB010008DB010008DB0100082F
:10014000DB010008DB010008DB010008DB0100081F
:10015000DB010008DB010008DB010008DB0100080F
:10016000DB010008DB010008DB010008DB010008FF
:10017000DB010008DB010008DB01000800000000D3
:10018000DB010008DB010008DB010008DB010008DF
:10019000DB010008DB010008DB010008DB010008CF
:1001A000DB010008DB010008DB010008DFF80CD0F0
:1001B00000F07AF8004800472D250008B00700201D
:1001C0000648804706480047FEE7FEE7FEE7FEE7F1
:1001D000FEE7FEE7FEE7FEE7FEE7FEE7D11E0008CA
:1001E000AD0100082DE9F05F0546002092469B46D0
:1001F00088460646814640241BE02846414647463D
:10020000224600F041F853465A46C01A914110D395
:1002100011461846224600F028F82D1A67EB01080F
:100220004F4622460120002100F01FF817EB00097D
:100230004E41201EA4F10104DFDC484631462A4627
:100240004346BDE8F09FD2B201E000F8012B491E01
:10025000FBD270470022F6E710B513460A46044663
:100260001946FFF7F0FF204610BD202A04DB203A94
:1002700000FA02F1002070479140C2F1200320FAF9
:1002800003F3194390407047202A04DB203A21FAF7
:1002900002F00021704721FA02F3D040C2F120029F
:1002A0009140084319467047064C074D06E0E06848
:1002B00040F0010394E8070098471034AC42F6D3AD
:1002C000FFF778FFB0260008D026000808B5012205
:1002D00010210A4800F01EF9002000BF401CC0B2E7
:1002E0000328FAD300F010F80A23012269460448D3
:1002F00000F0FCFCBDF8000008BD0000000002405A
:1003000018000020FEE7000000221021014800F044
:1003100001B9000000000240704790F83510022932
:1003200003D08021416501207047052180F83510F8
:100330000068016821F001010160002070470000A1
:100340002DE9F84F00224FF0010803254FF00F0E62
:100350000B6808FA02F42340A3426ED14E68012EC6
:1003600005D0022E03D0112E01D0122E12D1866894
:100370004FEA420C05FA0CF7BE43CF6807FA0CF7B8
:10038000374387604668A6430C79C4F30014944051
:1003900034434460C668570005FA07FC8C6826EAB7
:1003A0000C06BC403443C4604C68022C01D0122CB3
:1003B00013D1D40800EB8404A346D4F8209054074A
:1003C0004FEAD46A0EFA0AF629EA06090E6906FA15
:1003D0000AF646EA0906CBF8206004680E7924EA9A
:1003E0000C0406F00306BE40264306604C68E40099
:1003F0006FD53B4C266846F480462660246822F080
:10040000030604F480440094364C3444A446D4F8E3
:1004100008489607360F0EFA06F7BC43324FB8422B
:1004200001D100272EE0314FB84201D1012729E048
:100430002F4FB84202D1022724E04AE02D4FB842A4
:1004400001D103271EE02C4FB84201D1042719E047
:100450002A4FB84201D1052714E0294FB84201D1F3
:1004600006270FE0274FB84201D107270AE0264FA1
:10047000B84201D1082705E0244FB84201D109272D
:1004800000E00A27B7402743CCF80878204E3468AC
:100490004F689C43FF0300D51C4334601C4E361D3F
:1004A00034684F689C43BF0300D51C433460184E2A
:1004B000083634684F689C43FF0200D51C43346003
:1004C000134E0C3634684F689C43BF0200D51C4362
:1004D0003460521C102AFFF43BAFBDE8F88F0000D7
:1004E0004438024000300140000002400004024055
:1004F00000080240000C02400010024000140240BC
:1005000000180240001C024000200240002402406B
:10051000003C01400AB1816170470904FBE700001B
:100520000148806870470000080000200248816888
:100530000278114481607047080000200B4810B514
:10054000016841F400710160016841F4806101605B
:10055000016841F480710160032000F06FF8002011
:1005600000F006F800F024F8002010BD003C024026
:1005700070B50D4D04464FF47A712878B1FBF0F058
:100580000A490968B1FBF0F000F049FD48B9102CA8
:1005900007D200222146501E00F030F800206C6087
:1005A00070BD012070BD0000080000201400002074
:1005B0000A4808B5016841F480410160006800F410
:1005C000804000900548001F016841F080510160A3
:1005D000006800F08050009008BD000044380240E0
:1005E000002809DB00F01F02012191404009800032
:1005F00000F1E020C0F8001170470000F0B40E4B8D
:100600001B680C46C3F30223C3F10705042D00D970
:100610000425191D072901D2002300E0DB1E012655
:1006200006FA05F1491E214099409E40761E16406B
:100630003143F0BC01F04FBF0CED00E0064900F083
:10064000070208684FF6FF03184040EA0220034AF9
:1006500010430860704700000CED00E00000FA0550
:100660002DE9F8431748016841F0805101600068A6
:10067000154F00F08050012600903E64FFF750FFB8
:1006800005464FF47A78114C05E000BFFFF748FFAC
:10069000401B40450DD86068C003F7D57E64FFF766
:1006A0003FFF0546464607E0FFF73AFF401BB042D2
:1006B00002D90320BDE8F88360688003F4D50020E8
:1006C000F8E700004038024000000E420070004091
:1006D0002DE9F0470E46050065D0DFF81481D8F803
:1006E0000000F7B200F00F00B04207D288F80070A7
:1006F000D8F8000000F00F00B04254D128683D4CFB
:10070000810712D5400703D5206840F4E0502060EF
:100710002878000703D5206840F4604020602068F6
:10072000A96820F0F000084320602878C0072DD089
:10073000304968680839012812D0022813D00328EC
:1007400011D00968890700292DDA216821F00301F9
:1007500001432160FFF7E4FE814641F2883A0EE052
:1007600009688903EFE709688901ECE7FFF7D8FE1C
:10077000A0EB0901514502D90320BDE8F0872068AC
:10078000696800F00C00B0EB810FEFD1D8F80010D1
:10079000404601F00F01B14207D90770006800F030
:1007A0000F00B04201D00120E7E72878400705D5C7
:1007B0002068E96820F4E0500843206028780007AA
:1007C00006D52068296920F4604040EAC100206015
:1007D00000F038F82168084AC1F30311515CC840A1
:1007E0000649086006480068FFF7C2FE0020C4E71B
:1007F000003C0240083802409826000814000020FF
:100800000C0000200448054900680968044AC1F347
:100810008221515CC8407047140000200838024013
:10082000A82600080448054900680968044AC1F37D
:100830004231515CC8407047140000200838024023
:10084000A8260008154810B5006810F00C021448DE
:1008500013D01449042A0FD0082A0ED10F4C241F9C
:100860002268236802F03F025B0207D52068C0F3CC
:100870008810A0FB010106E0084610BD2168C1F305
:100880008811A1FB00010023FFF7ACFC2168C1F334
:100890000141491C4900B0FBF1F010BD083802408D
:1008A0000024F40040787D012DE9F84F040076D053
:1008B0002078DFF838A3CE4DC00749D0DAF8001011
:1008C0005046C1F38101012908D00068C0F38100BE
:1008D00002280AD1281D0068400206D52868800336
:1008E00036D560680028E2D032E06068B0F5803F1D
:1008F00010D0B0F5A02F286810D020F480302860E8
:10090000286820F4802028606068A0B1FFF708FE06
:1009100006460CE0286840F48030F4E740F480207C
:100920002860F7E7FFF7FCFD801B642873D8286870
:100930008003F7D50CE0FFF7F3FD064605E000BFA6
:10094000FFF7EEFD801B6428F0D828688003F7D4F9
:100950002078DFF8A08280074FF000093ED5DAF852
:100960000010504611F00C0F09D00068C0F3810050
:1009700002280BD19D48001F0068400206D4286859
:10098000800715D5E068012809D111E0E068B8B109
:100990000120C8F80000FFF7C3FD064605E020E18E
:1009A000FFF7BEFD801B0228C0D828688007F7D556
:1009B0002868216920F0F80040EAC10028600DE0B5
:1009C000C8F80090FFF7ACFD064604E0FFF7A8FD6D
:1009D000801B02281FD828688007F7D420780007DA
:1009E00022D5824E844861696C3671B10121016063
:1009F000FFF796FD074604E0FFF792FDC01B0228B3
:100A000009D830688007F7D50EE0C0F80090FFF7EE
:100A100087FD074605E082E0FFF782FDC01B022844
:100A20007DD830688007F7D42078400768D5DFF894
:100A3000BCB100270BF1380BDBF80000C0000BD471
:100A4000DBF8001041F08051CBF80010DBF800001B
:100A5000012700F080500090684E3068C00510D427
:100A6000306840F480703060FFF75AFD009005E078
:100A7000FFF756FD0099401A022850D83068C0058B
:100A8000F6D55A4EA068683601280FD00528306880
:100A900010D020F001003060306820F00400306099
:100AA000A068B8B1FFF73CFD00900FE0306840F05F
:100AB0000100F4E740F004003060F7E7FFF730FD95
:100AC0000099411A41F28830814266D83068800727
:100AD000F4D50EE0FFF724FD009007E0FFF720FDBE
:100AE0000099411A41F28830814256D83068800717
:100AF000F4D42FB1DBF8001021F08051CBF80010B6
:100B0000A069D0B3DAF800205146C2F38102022A6C
:100B10004AD00228484607D0C8F8600000E03CE010
:100B2000FFF7FEFC04463BE04746C8F86000FFF7CD
:100B3000F7FC064605E000BFFFF7F2FC801B022829
:100B40002BD828688001F7D4D4E907010843A16AAB
:100B50002B4A490802EB0141626A41EA82110843CB
:100B600094F82C1040EA01612048001F0160012028
:100B70003866FFF7D5FC044605E034E0FFF7D0FC0B
:100B8000001B022809D828688001F7D52BE000BF98
:100B9000FFF7C6FC001B022802D90320BDE8F88F2E
:100BA00028688001F4D41EE00128F7D00868E269C3
:100BB00000F48001914214D1226A00F03F01914279
:100BC0000FD147F6C071626A0140914209D1A26A11
:100BD00000F44031914204D1E16A00F07060884233
:100BE00001D00120DAE70020D8E7000008380240F1
:100BF0000038024000004742800E4742007000402B
:100C00000000FFFF70B5040005D00025A56294F830
:100C1000510010B106E0012070BD84F8505020460C
:100C200000F030F8022084F851002068016821F0BB
:100C300040010160D4E901010843D4E903121143E2
:100C4000084361690843218B01F400710843E1699D
:100C50000843216A0843A16A084321680860A06923
:100C6000042101EA1040616A084321684860206855
:100C7000C16921F40061C1616565012084F85100FA
:100C8000002070BD10B586B0044614216846FFF7F9
:100C9000E1FA13492068884220D11248016841F4E2
:100CA00080510160006800F4805005900D481438B0
:100CB000016841F0010101600068694600F001002F
:100CC00005906020009002200190012002900320F6
:100CD0000390052004900448FFF732FB06B010BDD6
:100CE0000030014044380240000002402DE9F84F36
:100CF000044640680025984616460F464FF0040B00
:100D0000B0F5827F01D1A06888B194F85000012825
:100D100018D0012084F85000FFF702FC814694F8B7
:100D200051004FF0000A01280ED002257DE084F822
:100D300051B013460A462046CDF8008000F07EF8F8
:100D4000BDE8F88F0220FBE7002F6DD0002E6BD09E
:100D500084F851B0C4F854A0A763A687E687C4F806
:100D600030A0A4F834A0A4F836A0C4F840A0C4F879
:100D700044A0A068B0F5004F04D12068016821F4B8
:100D80008041016020680168490603D4016841F090
:100D900040010160E068D8B139E020688168C90786
:100DA00009D0007BA16B0870A06B401CA063E08F92
:100DB000401EE0870CE0FFF7B3FBA0EB09014145C3
:100DC00003D3B8F1FF3F03D036E0B8F1000F33D0C2
:100DD000E08F0028E1D11DE020688168C90709D0B3
:100DE000C068A16B0880A06B801CA063E08F401ED0
:100DF000E0870CE0FFF794FBA0EB0901414503D32A
:100E0000B8F1FF3F03D017E0B8F1000F14D0E08F26
:100E10000028E1D14A464146204600F06CFF08B167
:100E200020206065606D00B10125012084F851002B
:100E300084F850A0284683E70325F6E72DE9F84F0C
:100E4000044690F8500000270A9E1D4692468B46A5
:100E50004FF0010901280ED0012084F85000FFF75F
:100E60005FFB804694F85100616801280CD0B1F511
:100E7000827F07D102E00220BDE8F88FA16809B99E
:100E8000042801D00227C2E0BBF1000F27D0BAF13D
:100E9000000F24D01DB394F85100042802D005207F
:100EA00084F8510000206065C4F838A0E587A58764
:100EB000C4F830B0E586A5862064606420680168C7
:100EC000490603D4016841F040010160E068B0F5D3
:100ED000006F606805D0E8B3012D46D07FE00127A0
:100EE00095E008B1012D39D1206B21680088C860D8
:100EF000206B801C2063E08E401EE0862EE0206880
:100F0000816889070FD5E18E69B1B9F1010F0AD166
:100F1000216B0988C160206B801C2063E08E401E1D
:100F2000E0864FF0000920688168C9070CD0E18F86
:100F300051B1C068A16B0880A06B801CA063E08FDA
:100F4000401EE0874FF00109FFF7EAFAA0EB080026
:100F5000B04200E009E001D3701C50D1E08E0028BF
:100F6000CDD1E08F0028CAD13FE0206B2168007806
:100F70000873206B401C2063E08E401EE0862EE04C
:100F80002068816889070FD5E18E69B1B9F1010F39
:100F90000AD1216B09780173206B401C2063E08E1D
:100FA000401EE0864FF0000920688168C9070CD018
:100FB000E18F51B1C068A16B0870A06B401CA063A9
:100FC000E08F401EE0874FF00109FFF7A9FAA0EB80
:100FD0000800B04202D3701C01D010E07EB1E08E58
:100FE0000028CDD1E08F0028CAD1424631462046A4
:100FF00000F0B0FE28B101272020606507E003273C
:1010000005E0A06818B92068C168806800900120D8
:1010100084F85100002084F8500038462CE710B5C1
:10102000401EB0F1807F01D3012010BD4FF0E024BD
:1010300060610F21601701F04EFA0020A0610720C7
:101040002061002010BD70477047000070B590F817
:101050003C20012A32D0012480F83C40022280F852
:101060003D2003685A689D6822F070060A68324382
:101070005A60134B02689A4214D0B2F1804F11D0DB
:10108000104B9A420ED0104B9A420BD00F4B9A4203
:1010900008D00F4B9A4205D00E4B9A4202D00E4B0D
:1010A0009A4204D1496825F080031943916080F881
:1010B0003D40002180F83C10084670BD022070BD04
:1010C000000001400004004000080040000C004007
:1010D00000040140004001400018004010B5040029
:1010E00003D094F83D0010B107E0012010BD0020AE
:1010F00084F83C00204600F00DF8022084F83D0002
:10110000211D206800F01EFF012084F83D00002012
:1011100010BD000008B5154A0168154891420ED16E
:10112000016841F0020101600068002200F0020045
:10113000009011461D20FFF761FA1D2010E00D4AB6
:10114000914211D1016841F008010160006800225C
:1011500000F00800009011463220FFF74FFA3220CD
:10116000BDE80840FFF73CBA08BD0000000400409D
:1011700040380240000C00400168CA6842F0010299
:10118000CA600068816801F00701062903D0016880
:1011900041F0010101600020704770B5044690F8ED
:1011A0003C00012817D0012584F83C50022084F827
:1011B0003D002068826822F0770222F47F4282603C
:1011C0000868502830D00DDC20284DD005DC98B3BD
:1011D00010283BD148E0022070BD302844D0402880
:1011E00034D139E0602828D0702806D0B0F5805F6F
:1011F0002CD0B0F5005F29D10AE0CB68D1E90121FC
:10120000206800F010FF2068816841F0770109E054
:10121000CB68D1E90121206800F005FF20688168D2
:1012200041F48041816011E0CA684968206800F09B
:10123000CFFF5021206807E016E0CA68496820689F
:1012400000F0D7FF6021206800F0F7FE84F83D50E1
:10125000002084F83C0070BDCA684968206800F02E
:10126000B7FF40212068EFE7226801461046EBE710
:10127000704770B50446006801694FF00005C94326
:10128000890715D4C168C943890711D4E91E0161D2
:1012900001202077206880698007204602D0FFF770
:1012A000E7FF04E000F003F9204600F0C3F92577DA
:1012B00020680169C943490717D4C168C943490770
:1012C00013D46FF004010161022020772068806947
:1012D00010F4407F204602D0FFF7CAFF04E000F080
:1012E000E6F8204600F0A6F9257720680169C94391
:1012F000090716D4C168C943090712D46FF0080161
:101300000161042020772068C0698007204602D050
:10131000FFF7AEFF04E000F0CAF8204600F08AF9BB
:10132000257720680169C943C90617D4C168C94334
:10133000C90613D46FF010010161082020772068DE
:10134000C06910F4407F204602D0FFF791FF04E00F
:1013500000F0ADF8204600F06DF9257720680169AE
:10136000C943C90708D1C168C943C90704D1891E47
:101370000161204600F0C6F920680169C9430906E9
:1013800009D4C168C943090605D46FF08001016121
:101390002046FFF758FE20680169C943490609D471
:1013A000C168C943490605D46FF040010161204678
:1013B00000F0A9F920680169C94389060BD4C16806
:1013C000C943890607D46FF0200101612046BDE8BA
:1013D0007040FFF739BE70BD10B586B004461421C9
:1013E0006846FEF737FF2368164C00211648022294
:1013F000A34210D1036843F004030360006800F0C7
:1014000004000590D0010090CDE90121CDE903123F
:1014100069460E4812E00E4CA34211D1036843F016
:1014200001030360006800F00100059001200090B6
:10143000CDE90121CDE9031269460648FEF780FF98
:1014400006B010BD000400403038024000080240E1
:10145000000C00400000024070B5044690F83C00CB
:1014600001280DD0012584F83C50022084F83D006D
:1014700042B1042A0AD0082A0CD00C2A11D10DE05E
:10148000022070BD206800F0E1FD0AE0206800F055
:101490000DFE06E0206800F03FFE02E0206800F04C
:1014A0006FFE84F83D50002084F83C0070BD70470A
:1014B00010B5040003D094F83D0010B107E00120FE
:1014C00010BD002084F83C00204600F00CF80220FB
:1014D00084F83D00211D206800F034FD012084F8CF
:1014E0003D00002010BD704710B504460068012281
:1014F00000F08CFD0B492068884202D00A498842DE
:1015000003D1416C41F4004141642068816801F0DD
:101510000701062903D0016841F0010101600020A4
:1015200010BD0000000001400004014070B50446F9
:1015300090F83C000D4601280DD0012684F83C604F
:10154000022084F83D0042B1042A18D0082A2AD08B
:101550000C2A4DD139E0022070BD206800F076FDE4
:101560002068816941F0080181612068816921F06A
:1015700004018161206881692A69114311E02068B2
:1015800000F094FD2068816941F400618161206868
:10159000816921F480618161206881692A6941EA59
:1015A0000221816124E0206800F0B6FD2068C16955
:1015B00041F00801C1612068C16921F00401C161E5
:1015C0002068C1692A69114311E0206800F0D8FD44
:1015D0002068C16941F40061C1612068C16921F4DA
:1015E0008061C1612068C1692A6941EA0221C16143
:1015F00084F83D60002084F83C0070BD10B5040004
:1016000003D094F83D0010B107E0012010BD002088
:1016100084F83C00204600F00CF8022084F83D00DD
:10162000211D206800F08EFC012084F83D00002080
:1016300010BD704700680349884202D1024900206A
:1016400048607047000C00400000002010B50446C0
:101650000068012200F0DAFC0B492068884202D0C1
:101660000A49884203D1416C41F400414164206839
:10167000816801F00701062903D0016841F00101EA
:101680000160002010BD0000000001400004014086
:1016900010B50268044631B1042908D0082925D0C4
:1016A0000C2908D126E0D06840F0020002E0D068A2
:1016B00040F00400D0600122206800F0A7FC0F4930
:1016C0002068884202D00E49884203D1416C41F41F
:1016D000004141642068816801F00701062903D0B8
:1016E000016841F001010160002010BDD06840F0A8
:1016F0000800DFE7D06840F01000DBE700000140A1
:1017000000040140704770477047000070B50268E0
:1017100004461068D168536910F00F0F52D003F0DF
:10172000010501F490762E435FD0C20705D0CA05AB
:1017300003D5E26B42F00102E263420705D5DA0706
:1017400003D0E26B42F00202E263820705D5DA07BA
:1017500003D0E26B42F00402E263020707D501F016
:1017600020022A4303D0E26B42F00802E263E26BFC
:10177000002A33D0800604D5880602D5204600F022
:1017800060FD20684069E16BC0F38010090700D458
:1017900028B3204600F047FD2068416949061AD564
:1017A000416921F040014161606BA0B11B490165B5
:1017B000606BFEF7B2FD002810D0606B016DBDE8D4
:1017C00070400847830610D58B060ED52046BDE82D
:1017D000704000F036BD2046FFF796FF70BD2046F2
:1017E000FFF792FF0020E06370BD030606D50B06ED
:1017F00004D52046BDE8704000F002BE4006F3D597
:101800004806F1D5D168204621F04001D160202161
:1018100084F8391000F055F970BD00001722000857
:1018200070B5040004D094F83900002510B106E02A
:10183000012070BD84F83850204600F023F82420A1
:1018400084F839002068C16821F40051C160204645
:1018500000F042FD2068016921F490410161206897
:10186000416921F02A0141612068C16841F40051B9
:10187000C160E563202084F8390084F83A00002034
:1018800070BD000070B586B0044614216846FEF7AE
:10189000E1FC284E22680021274802230324072563
:1018A000B2421DD1244A1432166846F01006166062
:1018B000126802F010020592026842F00102026012
:1018C000006802AA00F00100059082E83200600280
:1018D000CDE9000369461948FEF732FD06B070BD38
:1018E000174EB242FAD1144A1032166846F48026D6
:1018F0001660126802F480220592026842F0020229
:101900000260006802AA00F00200059082E832003E
:101910004FF44060CDE9000369460A48FEF710FD28
:10192000002211462720FEF769FE2720FEF758FE09
:10193000D4E70000001001403038024000000240AF
:1019400000480040000402402DE9F843044690F8A6
:101950003A00994616460D46202852D1BDB1B6B17F
:1019600094F8380001284CD0012084F83800002772
:10197000E763222084F83A002C34FEF7D1FD24F8E6
:10198000026B804624F80A6B04F8387931E00120B4
:10199000BDE8F883E08D401EE085A0684346B0F5C1
:1019A000805F4FF000024FF020012046CDF80090FC
:1019B00004D000F056FD98B10320E9E700F051FD96
:1019C0000028F9D1206900282068406803D0C1B2FE
:1019D00025F8011B0DE0C0F3080125F8021B08E003
:1019E000206900282068406801D000F07F0005F8D9
:1019F000010BE08D0028CDD1202084F83A00002092
:101A0000C6E70220C4E770472DE9F843044690F882
:101A100039001F4616460D46202850D1B5B1AEB14B
:101A200094F8380001284AD0012084F838004FF09B
:101A30000008C4F83C80212084F83900FEF770FDCE
:101A4000A6848146E68484F8388026E00120BDE83B
:101A5000F883E08C401EE084A0684B46B0F5805FC0
:101A60004FF000024FF080012046009703D000F0B5
:101A7000F8FCE8B90DE000F0F4FCC8B9288821684A
:101A8000C0F308004860206908B16D1C05E0AD1C7A
:101A900003E0216815F8010B4860E08C0028D8D1DC
:101AA0004B46002240212046009700F0DAFC08B1A6
:101AB0000320CCE7202084F839000020C7E702206B
:101AC000C5E77047FEE70000F0B587B0142168460F
:101AD000FEF7C0FB2E480024016841F020010160A0
:101AE000016801F020010591016841F08001016069
:101AF000016801F080010591016841F00101016078
:101B0000016801F001010591016841F002010160E5
:101B1000016801F002010591016841F04001016096
:101B2000016801F040010591016841F00401016084
:101B30000068184E00F00400059000229021304605
:101B4000FEF7E8FC144F002220213846FEF7E2FCA5
:101B500012480125CDE90050022002906946104844
:101B6000FEF7EEFB9020CDE900050320CDE9024011
:101B700069463046FEF7E4FB20200090CDE9015491
:101B8000694638460394FEF7DBFB07B0F0BD000062
:101B900030380240000002400018024000001110DE
:101BA000001402400D480C494FF4007201604FF4DC
:101BB000827141604FF4806181604900C160002101
:101BC0000161C0E905121022C0E90721416281626A
:101BD0000A21C162FFF716B800300140180000204A
:101BE00010B58EB000240794089409940A940B94BD
:101BF0001C2168460C94FEF72DFB1748154901601F
:101C00000321C0E901146421C0E903148461FFF7D2
:101C100065FA4FF48050079007A90F48FFF7BDFA07
:101C20000D48FFF7EBFC0B940BA90B480C94FFF746
:101C30000DFA602000903220CDE9010408226946A7
:101C400005480494FFF772FC0348FFF7C5FB0EB08C
:101C500010BD0000000400407000002010B58EB0E0
:101C600000240794089409940A940B941C21684654
:101C70000C94FEF7EFFA1C481A4901600221C0E9F2
:101C800001141A49C0E903148461FFF727FA4FF4DD
:101C90008050079007A91448FFF77FFA1248FFF712
:101CA000ADFC1148FFF704FC0B940BA90E480C94F3
:101CB000FFF7CCF9602000904FF4FA70CDE90104F1
:101CC0000022694608480494FFF730FC0422694664
:101CD00005480094FFF7C0FB0348FFF77DFB0EB0FB
:101CE00010BD0000000C0040B0000020404B4C0034
:101CF000FEE770477047F8B5044640684FF48273BA
:101D0000984221D1A0684FF48065B0F5004F01D012
:101D1000A8420AD12068066826F04006066060687E
:101D2000984211D1A068A8420ED000920B46002222
:101D30008021204600F03AF8002804D0606D40F081
:101D4000200060650320F8BD00920B4600220121AF
:101D5000EFE7000038B504461248134B0068B0FBAB
:101D6000F3F04FF47A73584300906068B0F5827FC7
:101D70000DD10B46009200228021204600F016F87B
:101D800070B1606D40F020006065032038BD0098A0
:101D900030B1401E009020688068C0430006F6D530
:101DA000002038BD1400002000366E012DE9F041FE
:101DB0001D4617460E460446DDF8188008E0681CEC
:101DC00006D0FEF7ADFBA0EB0800A8420BD255B140
:101DD0002068806836EA000030D00020B842EED19A
:101DE0000020BDE8F0812068416821F0E0014160F9
:101DF0006068B0F5827F0BD1A068B0F5004F02D0CB
:101E0000B0F5806F04D12068016821F040010160C5
:101E1000A06AB0F5005F09D12068016821F4005183
:101E200001602068016841F400510160012084F8DC
:101E30005100002084F850000320D2E70120CDE7B4
:101E40007047FEF773BB000030B593B03021684691
:101E5000FEF700FA14210CA8FEF7FCF91A48002539
:101E6000016841F080510160006800F080501190DD
:101E70001648016841F4404101600068022400F402
:101E8000404011900120039010200490009406948B
:101E90000820CDE90750B420CDE9090404200B90B7
:101EA0006846FEF701FDFEF7DBFB0CA90F2081E879
:101EB00031004FF4A0500F90E002109005210CA8C3
:101EC000FEF706FC13B030BD403802400070004001
:101ED0000548016841F47001016003494FF000605A
:101EE000803908607047000088ED00E010B50F48A9
:101EF000FFF7BFF90E4C606857280CDB6068B0F53F
:101F0000BB7F08DCFEF7E2F90A49626801EB420197
:101F100021F8AE0C06E06068A0F58071773901D138
:101F2000012020606068401C606010BD70000020CF
:101F300000000020700100200148FFF79AB900005E
:101F4000B0000020F0B50268254C264D264E274FE4
:101F5000274B4FF0804CA04209D0604507D0A842E3
:101F600005D0B04203D0B84201D0984204D122F04B
:101F7000700E4A6842EA0E02A0421BD0604519D09A
:101F8000A84217D0B04215D0B84213D0984211D011
:101F9000184DA8420ED0184DA8420BD0174DA8429C
:101FA00008D0174DA84205D0164DA84202D0164DB4
:101FB000A84203D122F44075CA682A434D6922F031
:101FC00080022A4302608A68C2620A688262A04272
:101FD00001D0984201D10969016301214161F0BD3D
:101FE000000001400004004000080040000C0040D8
:101FF000000401400040014000440140004801400D
:1020000000180040001C00400020004010B501F006
:102010001F030121046A99408C430462016A9A40BB
:102020001143016210BD10B5846842EA032224F412
:102030007F440A432243826010BD826822F070020E
:102040000A4342F00701816070470000F0B5026A60
:1020500022F001020262036A42688469124E24F08F
:1020600073050C682C4323F002058B682B430D4D40
:10207000A84201D0B04205D123F00807CB683B430A
:1020800023F00403A84201D0B04205D14D6922F4E7
:10209000407215438A692A434260846149684163FA
:1020A0000362F0BD0000014000040140F0B5026A87
:1020B00022F010020262026A436884690D6824F407
:1020C000E64444EA05248D6822F0200242EA051223
:1020D0000F4D104EA84201D0B04206D1CF6822F079
:1020E000800242EA071222F04002A84201D0B04228
:1020F00007D14D6923F4406343EA85038D6943EAC0
:10210000850343608461496881630262F0BD000019
:102110000000014000040140F0B5026A22F4807220
:102120000262026A4368C46922F4007224F07305F3
:102130000C68124E2C438D6842EA05220E4DA842CF
:1021400001D0B04206D1CF6822F4006242EA0722F1
:1021500022F48062A84201D0B04207D14D6923F435
:10216000405343EA05138D6943EA05134360C46194
:102170004968C1630262F0BD0000014000040140F3
:1021800030B5026A22F480520262046A4268C3696E
:102190000D6823F4E64343EA05238D6824F40054D4
:1021A00044EA0534084DA84202D0084DA84204D1A3
:1021B0004D6922F4804242EA85124260C361496857
:1021C0000164046230BD00000000014000040140D1
:1021D00010B5036A046A24F001040462846924F0DF
:1021E000F00444EA021423F00A020A438461026202
:1021F00010BD10B5036A23F0100303628369046AFB
:1022000023F4704343EA023224F0A00343EA0111AD
:102210008261016210BD10B5806B0021C185C1844F
:10222000FFF772FA10BD0168CA6822F49072CA60A2
:1022300001684A6922F001024A61202180F83A10BF
:10224000704710B590F83A10222901D0022010BD35
:102250008168B1F5805F11D00169002901681FD044
:10226000496801F07F03816A4A1C82620B70C18D4C
:10227000491E0904090CC18518D02BE00269816A46
:10228000002A0268526805D0D2B20A80816A491CCD
:102290008162ECE7C2F308020A80816A891CF7E7D1
:1022A0004A68816A4B1C83620A70E0E70168CA6869
:1022B00022F02002CA600168CA6822F48072CA60F3
:1022C00001684A6922F001024A61202180F83A102F
:1022D000FFF799FB002010BD2DE9F041044600688E
:1022E0000169E26821F44051114301612169A0684C
:1022F000E26908436169114308432168CA6849F2E9
:102300000C639A430243CA6020684169A26921F4C0
:10231000407111434161E069192764253226B0F507
:10232000004F354A354920684FF0000806D08842F2
:1023300001D0904236D1FEF775FA35E0884201D0DF
:10234000904202D1FEF76EFA01E0FEF75BFA616897
:102350004A18A0FB070148EB0803FDF743FF0146BD
:10236000B0FBF5F00201B1FBF5F06FF01803584334
:1023700001EB800006EBC000B0FBF5F000F0F800C8
:1023800002EB4002B1FBF5F0584301EB800006EB95
:10239000C000B0FBF5F000F0070021681044886031
:1023A000BDE8F081FEF72EFA61688B0F8A00A0FB72
:1023B0000701FDF717FF0146B0FBF5F06FF01802BB
:1023C000504301EB800006EB0010B0FBF5F000F08D
:1023D000F002B1FBF5F002EB0012B1FBF5F06FF08B
:1023E0001803584301EB800006EB0010B0FBF5F03A
:1023F00000F00F00D1E70000001401400010014080
:1024000090F83910212901D0022070478168B1F578
:10241000805F016A0BD04A1C026202680978516031
:10242000C18C491E0904090CC1840ED017E009882B
:102430000268C1F30801516001690029016A02D0F4
:10244000491C0162ECE7891CFBE70168CA6822F0BD
:102450008002CA600068C16841F04001C16000208C
:1024600070472DE9F041984617460E460446069DF2
:102470001DE0681C1BD02DB1FEF752F8A0EB080040
:10248000A84214D92068C16821F4D071C1602068C5
:10249000416921F001014161202084F8390084F86C
:1024A0003A00002084F838000320BDE8F08120685D
:1024B000006836EA000004D00020B842D9D00020DD
:1024C000F3E70120F9E700000148FFF71FB900001A
:1024D00030010020FEE70907090E002804DB00F1A7
:1024E000E02080F80014704700F00F0000F1E020B9
:1024F00080F8141D704702E008C8121F08C1002AA6
:10250000FAD170477047002001E001C1121F002A74
:10251000FBD1704710B5012280210348FDF7FAFF77
:10252000BDE81040FDF7F0BE000002401CB5FEF70C
:1025300005F8FFF789FCFFF7C7FAFFF733FB4C48B4
:102540004A494FF0000801604FF4E135C0E90158F5
:102550000821C0F80C80C0E90481C0F81880444606
:10256000C0F81C80FFF75CF9FFF73AFBFFF776FB3A
:102570003F48404940300160C0E901540C21C4602B
:10258000C0E904418461C461FFF74AF93848082171
:102590008038FFF75BF8364800214038FFF756F8DF
:1025A00033488038FEF7E8FD31484038FEF7E4FD57
:1025B0002F4804214038FEF797FF2D48042140386A
:1025C000FFF766F8FFF7A6FFDFF8AC9028480A236C
:1025D000062269464030FFF7B7F9DDF801009DF8A3
:1025E000041000BA20F0FF0008439DF800101F29D6
:1025F00009D140B12149224A0144116020490831E2
:102600000860091D0860D9F8001048460129DDD18D
:10261000C0F800800A2000F035F8212000F032F8E0
:10262000732000F02FF8702000F02CF8652000F0E7
:1026300029F86B2000F026F8212000F023F80A206A
:1026400000F020F80A4E002480364FF4907700BF47
:1026500036F81400C5B2000A00F014F8284600F05D
:1026600011F8641CA4B2BC42F2D3AFE700100140E1
:10267000F00000200048004000000020404B4C00CB
:102680002C0C004001B50A23012269460148FFF7DE
:10269000BBF908BDF00000200000000000000000B1
:1026A00001020304060708090000000001020304F8
:1026B000D02600080000002018000000F6240008C2
:1026C000E8260008180000209807000006250008EA
:1026D00000000000000000000100000010000000E9
:0826E000000000000024F400DA
:04000005080001AD41
:00000001FF
