:020000040800F2
:1000000030050020C1010008F71700085F1600083E
:10001000F517000841030008351F00080000000024
:10002000000000000000000000000000451900086A
:100030006503000800000000F917000847190008D0
:10004000DB010008DB010008DB010008DB01000820
:10005000DB010008DB01000867030008DB01000882
:10006000DB010008DB010008DB010008DB01000800
:10007000DB010008DB010008DB010008DB010008F0
:10008000DB010008DB010008DB010008DB010008E0
:10009000DB010008DB010008DB010008DB010008D0
:1000A000DB010008DB010008DB010008DB010008C0
:1000B000DB010008DB010008DB010008DB010008B0
:1000C000DB010008DB010008DB010008DB010008A0
:1000D000DB010008DB010008DB010008DB01000890
:1000E000DB010008DB010008DB010008DB01000880
:1000F000DB010008DB010008DB010008DB01000870
:10010000DB010008DB010008DB010008DB0100085F
:10011000DB010008DB010008DB010008DB0100084F
:10012000DB010008DB010008DB010008DB0100083F
:10013000DB010008DB010008DB010008DB0100082F
:10014000DB010008DB010008DB010008DB0100081F
:10015000DB010008DB010008DB010008DB0100080F
:10016000DB010008DB010008DB010008DB010008FF
:10017000DB010008DB010008DB01000800000000D3
:10018000DB010008DB010008DB010008DB010008DF
:10019000DB010008DB010008DB010008DB010008CF
:1001A000DB010008DB010008DB010008DFF80CD0F0
:1001B00000F090F800480047212100083005002099
:1001C0000648804706480047FEE7FEE7FEE7FEE7F1
:1001D000FEE7FEE7FEE7FEE7FEE7FEE7D5190008CB
:1001E000AD0100082DE9F05F0546002092469B46D0
:1001F00088460646814640241BE02846414647463D
:10020000224600F057F853465A46C01A914110D37F
:1002100011461846224600F03EF82D1A67EB0108F9
:100220004F4622460120002100F035F817EB000967
:100230004E41201EA4F10104DFDC484631462A4627
:100240004346BDE8F09FD2B201E000F8012B491E01
:10025000FBD270470022F6E710B513460A46044663
:100260001946FFF7F0FF204610BD30B50B4601469A
:1002700000202022012409E021FA02F59D4205D345
:1002800003FA02F5491B04FA02F52844151EA2F1EF
:100290000102F1DC30BD202A04DB203A00FA02F131
:1002A000002070479140C2F1200320FA03F3194364
:1002B00090407047202A04DB203A21FA02F0002106
:1002C000704721FA02F3D040C2F120029140084366
:1002D00019467047064C074D06E0E06840F0010300
:1002E00094E8070098471034AC42F6D3FFF762FF5A
:1002F000382200085822000838B500F02BF80E4CC0
:1003000001221021204600F03BF901F0F6FE00F03A
:1003100019F80A2301226946084800F01DFD002251
:100320002021204600F02CF900224021204600F038
:1003300027F9BDF8000038BD00000240140000207D
:10034000FEE7000000221021014800F019B900006A
:100350000000024001228021014800F011B9000094
:10036000000002407047012000F014B870B5044648
:1003700000F00CF90546601C02D0044800780444E3
:1003800000F004F9401BA042FAD370BD0000002029
:1003900070470000044910B50A68024202D00860A4
:1003A000FFF7F6FF10BD0000143C01402DE9F84FA7
:1003B00000224FF0010803254FF00F0E0B6808FADA
:1003C00002F42340A3426ED14E68012E05D0022EC6
:1003D00003D0112E01D0122E12D186684FEA420CA2
:1003E00005FA0CF7BE43CF6807FA0CF7374387606E
:1003F0004668A6430C79C4F3001494403443446027
:10040000C668570005FA07FC8C6826EA0C06BC4053
:100410003443C4604C68022C01D0122C13D1D40890
:1004200000EB8404A346D4F8209054074FEAD46A22
:100430000EFA0AF629EA06090E6906FA0AF646EAEB
:100440000906CBF8206004680E7924EA0C0406F053
:100450000306BE40264306604C68E4006FD53B4C63
:10046000266846F480462660246822F0030604F4D9
:1004700080440094364C3444A446D4F80848960787
:10048000360F0EFA06F7BC43324FB84201D10027AF
:100490002EE0314FB84201D1012729E02F4FB84259
:1004A00002D1022724E04AE02D4FB84201D10327B0
:1004B0001EE02C4FB84201D1042719E02A4FB84260
:1004C00001D1052714E0294FB84201D106270FE0DA
:1004D000274FB84201D107270AE0264FB84201D181
:1004E000082705E0244FB84201D1092700E00A2778
:1004F000B7402743CCF80878204E34684F689C43B7
:10050000FF0300D51C4334601C4E361D34684F6811
:100510009C43BF0300D51C433460184E0836346832
:100520004F689C43FF0200D51C433460134E0C36C9
:1005300034684F689C43BF0200D51C433460521C92
:10054000102AFFF43BAFBDE8F88F000044380240AA
:100550000030014000000240000402400008024058
:10056000000C02400010024000140240001802403B
:10057000001C02400020024000240240003C0140D8
:100580000AB1816170470904FBE7000001488068F7
:100590007047000000000020024881680278114482
:1005A00081607047000000200B4810B5016841F4DD
:1005B00000710160016841F480610160016841F4EB
:1005C00080710160032000F06FF8002000F006F851
:1005D00000F024F8002010BD003C024070B50D4D25
:1005E00004464FF47A712878B1FBF0F00A490968A3
:1005F000B1FBF0F000F049FD48B9102C07D2002201
:100600002146501E00F030F800206C6070BD0120C3
:1006100070BD0000000000200C0000200A4808B552
:10062000016841F480410160006800F4804000905E
:100630000548001F016841F080510160006800F02A
:100640008050009008BD000044380240002809DBBB
:1006500000F01F02012191404009800000F1E020DC
:10066000C0F8001170470000F0B40E4B1B680C4638
:10067000C3F30223C3F10705042D00D90425191D76
:10068000072901D2002300E0DB1E012606FA05F14E
:10069000491E214099409E40761E16403143F0BCD1
:1006A00001F05ABC0CED00E0064900F007020868B2
:1006B0004FF6FF03184040EA0220034A1043086047
:1006C000704700000CED00E00000FA052DE9F8434A
:1006D0001748016841F0805101600068154F00F033
:1006E0008050012600903E64FFF750FF05464FF40E
:1006F0007A78114C05E000BFFFF748FF401B4045EA
:100700000DD86068C003F7D57E64FFF73FFF05464C
:10071000464607E0FFF73AFF401BB04202D90320EC
:10072000BDE8F88360688003F4D50020F8E7000096
:100730004038024000000E42007000402DE9F047B2
:100740000E46050065D0DFF81481D8F80000F7B236
:1007500000F00F00B04207D288F80070D8F800000F
:1007600000F00F00B04254D128683D4C810712D5EB
:10077000400703D5206840F4E05020602878000747
:1007800003D5206840F4604020602068A96820F00C
:10079000F000084320602878C0072DD030496868F1
:1007A0000839012812D0022813D0032811D0096873
:1007B000890700292DDA216821F003010143216016
:1007C000FFF7E4FE814641F2883A0EE009688903AA
:1007D000EFE709688901ECE7FFF7D8FEA0EB090114
:1007E000514502D90320BDE8F0872068696800F010
:1007F0000C00B0EB810FEFD1D8F80010404601F0AB
:100800000F01B14207D90770006800F00F00B04235
:1008100001D00120E7E72878400705D52068E9687E
:1008200020F4E050084320602878000706D52068AF
:10083000296920F4604040EAC100206000F038F8E7
:100840002168084AC1F30311515CC8400649086099
:1008500006480068FFF7C2FE0020C4E7003C0240E3
:1008600008380240202200080C000020040000206C
:100870000448054900680968044AC1F38221515CB3
:10088000C84070470C0000200838024030220008A1
:100890000448054900680968044AC1F34231515CC3
:1008A000C84070470C000020083802403022000881
:1008B000154810B5006810F00C02144813D0144904
:1008C000042A0FD0082A0ED10F4C241F2268236857
:1008D00002F03F025B0207D52068C0F38810A0FB3E
:1008E000010106E0084610BD2168C1F38811A1FB93
:1008F00000010023FFF776FC2168C1F30141491C88
:100900004900B0FBF1F010BD083802400024F400AB
:1009100040787D012DE9F84F040076D02078DFF88B
:1009200038A3CE4DC00749D0DAF800105046C1F3C5
:100930008101012908D00068C0F3810002280AD192
:10094000281D0068400206D52868800336D56068F7
:100950000028E2D032E06068B0F5803F10D0B0F5FA
:10096000A02F286810D020F480302860286820F458
:10097000802028606068A0B1FFF708FE06460CE002
:10098000286840F48030F4E740F480202860F7E7DE
:10099000FFF7FCFD801B642873D828688003F7D517
:1009A0000CE0FFF7F3FD064605E000BFFFF7EEFDA4
:1009B000801B6428F0D828688003F7D42078DFF8FB
:1009C000A08280074FF000093ED5DAF800105046AB
:1009D00011F00C0F09D00068C0F3810002280BD180
:1009E0009D48001F0068400206D42868800715D57E
:1009F000E068012809D111E0E068B8B10120C8F829
:100A00000000FFF7C3FD064605E020E1FFF7BEFD4D
:100A1000801B0228C0D828688007F7D5286821697C
:100A200020F0F80040EAC10028600DE0C8F800900E
:100A3000FFF7ACFD064604E0FFF7A8FD801B022887
:100A40001FD828688007F7D42078000722D5824E67
:100A5000844861696C3671B101210160FFF796FD30
:100A6000074604E0FFF792FDC01B022809D8306852
:100A70008007F7D50EE0C0F80090FFF787FD074626
:100A800005E082E0FFF782FDC01B02287DD83068B8
:100A90008007F7D42078400768D5DFF8BCB100277D
:100AA0000BF1380BDBF80000C0000BD4DBF80010B2
:100AB00041F08051CBF80010DBF80000012700F076
:100AC00080500090684E3068C00510D4306840F403
:100AD00080703060FFF75AFD009005E0FFF756FD8B
:100AE0000099401A022850D83068C005F6D55A4EF1
:100AF000A068683601280FD00528306810D020F093
:100B000001003060306820F004003060A068B8B1A7
:100B1000FFF73CFD00900FE0306840F00100F4E783
:100B200040F004003060F7E7FFF730FD0099411A0C
:100B300041F28830814266D830688007F4D50EE0F3
:100B4000FFF724FD009007E0FFF720FD0099411A10
:100B500041F28830814256D830688007F4D42FB1F2
:100B6000DBF8001021F08051CBF80010A069D0B361
:100B7000DAF800205146C2F38102022A4AD0022844
:100B8000484607D0C8F8600000E03CE0FFF7FEFCF4
:100B900004463BE04746C8F86000FFF7F7FC06460E
:100BA00005E000BFFFF7F2FC801B02282BD8286865
:100BB0008001F7D4D4E907010843A16A2B4A490808
:100BC00002EB0141626A41EA8211084394F82C1059
:100BD00040EA01612048001F016001203866FFF7EC
:100BE000D5FC044605E034E0FFF7D0FC001B0228EA
:100BF00009D828688001F7D52BE000BFFFF7C6FCB5
:100C0000001B022802D90320BDE8F88F2868800164
:100C1000F4D41EE00128F7D00868E26900F48001EE
:100C2000914214D1226A00F03F0191420FD147F660
:100C3000C071626A0140914209D1A26A00F4403158
:100C4000914204D1E16A00F07060884201D0012035
:100C5000DAE70020D8E700000838024000380240F8
:100C600000004742800E4742007000400000FFFF36
:100C700070B5040005D00025A56294F8510010B1AC
:100C800006E0012070BD84F85050204600F030F896
:100C9000022084F851002068016821F040010160C1
:100CA000D4E901010843D4E90312114308436169FF
:100CB0000843218B01F400710843E1690843216A6C
:100CC0000843A16A084321680860A069042101EA79
:100CD0001040616A0843216848602068C16921F4B6
:100CE0000061C1616565012084F85100002070BD7C
:100CF00010B586B0044614216846FFF7ABFA1349D5
:100D00002068884220D11248016841F48051016076
:100D1000006800F4805005900D481438016841F0D7
:100D2000010101600068694600F001000590602043
:100D300000900220019001200290032003900520E2
:100D400004900448FFF732FB06B010BD00300140AC
:100D500044380240000002402DE9F84F0446406844
:100D60000025984616460F464FF0040BB0F5827FDB
:100D700001D1A06888B194F85000012818D0012052
:100D800084F85000FFF702FC814694F851004FF0C0
:100D9000000A01280ED002257DE084F851B01346E8
:100DA0000A462046CDF8008000F07EF8BDE8F88FB6
:100DB0000220FBE7002F6DD0002E6BD084F851B0DD
:100DC000C4F854A0A763A687E687C4F830A0A4F8A7
:100DD00034A0A4F836A0C4F840A0C4F844A0A06889
:100DE000B0F5004F04D12068016821F48041016012
:100DF00020680168490603D4016841F040010160A0
:100E0000E068D8B139E020688168C90709D0007B63
:100E1000A16B0870A06B401CA063E08F401EE087B0
:100E20000CE0FFF7B3FBA0EB0901414503D3B8F198
:100E3000FF3F03D036E0B8F1000F33D0E08F002839
:100E4000E1D11DE020688168C90709D0C068A16BA5
:100E50000880A06B801CA063E08F401EE0870CE040
:100E6000FFF794FBA0EB0901414503D3B8F1FF3F25
:100E700003D017E0B8F1000F14D0E08F0028E1D1C3
:100E80004A464146204600F0B8FC08B12020606583
:100E9000606D00B10125012084F8510084F850A054
:100EA000284683E70325F6E72DE9F84F044690F836
:100EB000500000270A9E1D4692468B464FF00109BE
:100EC00001280ED0012084F85000FFF75FFB804618
:100ED00094F85100616801280CD0B1F5827F07D1E8
:100EE00002E00220BDE8F88FA16809B9042801D00A
:100EF0000227C2E0BBF1000F27D0BAF1000F24D0C7
:100F00001DB394F85100042802D0052084F8510044
:100F100000206065C4F838A0E587A587C4F830B024
:100F2000E586A5862064606420680168490603D4CC
:100F3000016841F040010160E068B0F5006F606851
:100F400005D0E8B3012D46D07FE0012795E008B138
:100F5000012D39D1206B21680088C860206B801C6E
:100F60002063E08E401EE0862EE0206881688907BD
:100F70000FD5E18E69B1B9F1010F0AD1216B098852
:100F8000C160206B801C2063E08E401EE0864FF025
:100F9000000920688168C9070CD0E18F51B1C06891
:100FA000A16B0880A06B801CA063E08F401EE087CF
:100FB0004FF00109FFF7EAFAA0EB0800B04200E0A9
:100FC00009E001D3701C50D1E08E0028CDD1E08F14
:100FD0000028CAD13FE0206B216800780873206B9D
:100FE000401C2063E08E401EE0862EE02068816871
:100FF00089070FD5E18E69B1B9F1010F0AD1216BD3
:1010000009780173206B401C2063E08E401EE0864F
:101010004FF0000920688168C9070CD0E18F51B1F9
:10102000C068A16B0870A06B401CA063E08F401EDD
:10103000E0874FF00109FFF7A9FAA0EB0800B042E2
:1010400002D3701C01D010E07EB1E08E0028CDD11B
:10105000E08F0028CAD142463146204600F0FCFB12
:1010600028B101272020606507E0032705E0A0687C
:1010700018B92068C16880680090012084F8510088
:10108000002084F8500038462CE710B5401EB0F11F
:10109000807F01D3012010BD4FF0E02460610F215B
:1010A000601700F059FF0020A06107202061002098
:1010B00010BD000070B590F83C20012A32D0012408
:1010C00080F83C40022280F83D2003685A689D6801
:1010D00022F070060A6832435A60134B02689A4243
:1010E00014D0B2F1804F11D0104B9A420ED0104B59
:1010F0009A420BD00F4B9A4208D00F4B9A4205D020
:101100000E4B9A4202D00E4B9A4204D1496825F008
:1011100080031943916080F83D40002180F83C1025
:10112000084670BD022070BD000001400004004070
:1011300000080040000C0040000401400040014055
:101140000018004010B5040003D094F83D0010B121
:1011500007E0012010BD002084F83C00204600F08C
:101160000DF8022084F83D00211D206800F040FCAD
:10117000012084F83D00002010BD000008B5006883
:101180000649884208D10648016841F00201016021
:10119000006800F00200009008BD0000000400405C
:1011A0004038024070B5044690F83C00012817D042
:1011B000012584F83C50022084F83D0020688268B4
:1011C00022F0770222F47F4282600868502830D0F3
:1011D0000DDC20284DD005DC98B310283BD148E029
:1011E000022070BD302844D0402834D139E0602836
:1011F00028D0702806D0B0F5805F2CD0B0F5005F05
:1012000029D10AE0CB68D1E90121206800F061FC16
:101210002068816841F0770109E0CB68D1E90121BC
:10122000206800F056FC2068816841F480418160AC
:1012300011E0CA684968206800F020FD502120684C
:1012400007E016E0CA684968206800F028FD6021C0
:10125000206800F048FC84F83D50002084F83C00F1
:1012600070BDCA684968206800F008FD4021206808
:10127000EFE7226801461046EBE7000010B586B0A4
:10128000044614216846FEF7E5FF0D4920688842B0
:1012900014D10C480021026842F004020260006888
:1012A00000F004000590402000900220CDE90101EB
:1012B000CDE9031069460448FFF778F806B010BD81
:1012C00000040040303802400008024070B5044677
:1012D00090F83C000D4601280DD0012684F83C60B2
:1012E000022084F83D0042B1042A18D0082A2AD0EE
:1012F0000C2A4DD139E0022070BD206800F0FCFBC3
:101300002068816941F0080181612068816921F0CC
:1013100004018161206881692A69114311E0206814
:1013200000F01AFC2068816941F400618161206845
:10133000816921F480618161206881692A6941EABB
:101340000221816124E0206800F03CFC2068C16932
:1013500041F00801C1612068C16921F00401C16147
:101360002068C1692A69114311E0206800F05EFC21
:101370002068C16941F40061C1612068C16921F43C
:101380008061C1612068C1692A6941EA0221C161A5
:1013900084F83D60002084F83C0070BD10B5040066
:1013A00003D094F83D0010B107E0012010BD0020EB
:1013B00084F83C00204600F00CF8022084F83D0040
:1013C000211D206800F014FB012084F83D0000205E
:1013D00010BD704710B504460068012200F06CFB98
:1013E0000B492068884202D00A49884203D1416CE7
:1013F00041F4004141642068816801F00701062939
:1014000003D0016841F001010160002010BD00001F
:10141000000001400004014070B5040004D094F8BD
:101420003900002510B106E0012070BD84F8385065
:10143000204600F023F8242084F839002068C16891
:1014400021F40051C160204600F03CFC2068016995
:1014500021F4904101612068416921F02A01416134
:101460002068C16841F40051C160E563202084F820
:10147000390084F83A00002070BD000010B586B035
:10148000044614216846FEF7E5FE134920688842A9
:101490001FD11248016841F400210160006800F486
:1014A000002005900D481038016841F001010160ED
:1014B0000068022100F0010005900320CDE9000141
:1014C0000121CDE902100820049069460448FEF786
:1014D0006DFF06B010BD0000004C004040380240D7
:1014E0000000024070B5040004D094F83D000025CF
:1014F00010B106E0012070BD84F83C50204600F099
:101500001BF8022084F83D00204600F06FFC2068A4
:10151000016921F4804101612068416921F02A01BB
:1015200041612068C16841F40051C1602564012017
:1015300084F83D00002070BD10B586B0044614212B
:101540006846FEF787FE14492068884221D1134877
:101550000021026842F010020260006800F01000F2
:1015600005900E481438026842F0010202600068DB
:1015700000F0010005904FF4E06000900220CDE9FA
:101580000101032003900720049069460448FEF7F8
:101590000DFF06B010BD00000010014044380240AD
:1015A000000002402DE9F84F044690F83D001F4628
:1015B00016460D46012850D1ADB1A6B194F83C00B5
:1015C00001284AD04FF0010884F83C804FF0000910
:1015D000C4F84090122084F83D00FEF7D7FF26851E
:1015E0008246668526E00120BDE8F88F608D401EAA
:1015F0006085A0685346B0F5805F4FF000024FF061
:1016000080012046009703D000F05AFCE8B90DE0B5
:1016100000F056FCC8B928882168C0F3080048606B
:10162000206908B16D1C05E0AD1C03E0216815F8C8
:10163000010B4860608D0028D8D15346002240211C
:101640002046009700F03CFC08B10320CCE784F86A
:101650003D8084F83C900020C6E70220C4E7FEE706
:10166000F0B587B014216846FEF7F4FD2E4800243B
:10167000016841F020010160016801F0200105913D
:10168000016841F080010160016801F0800105916D
:10169000016841F001010160016801F0010105915B
:1016A000016841F040010160016801F040010591CD
:1016B000016841F00401016000681C4E00F0040064
:1016C0000590002290213046FEF75AFF184F002265
:1016D00020213846FEF754FF16480125CDE9005079
:1016E0000220029069461448FEF760FE9020CDE982
:1016F00000050320CDE9024069463046FEF756FE5C
:1017000020200090CDE90154694638460394FEF745
:101710004DFE002211460620FEF7A6FF0620FEF72A
:1017200095FF07B0F0BD00003038024000000240D5
:101730000018024000001110001402400D480C492E
:101740004FF4007201604FF4827141604FF4806188
:1017500081604900C16000210161C0E905120822D1
:10176000C0E90721416281620A21C162FFF780BAA4
:10177000003001401400002010B58EB00024079402
:10178000089409940A940B941C2168460C94FEF763
:1017900061FD1748154901600821C0E90114322193
:1017A000C0E903148461FFF7CDFC4FF4805007902B
:1017B00007A90F48FFF7F6FC0D48FFF7EFFD0B9464
:1017C0000BA90B480C94FFF775FC602000901920C2
:1017D000CDE901040022694605480494FFF776FD2F
:1017E0000348FFF74BFD0EB010BD000000040040A1
:1017F0006C000020FEE770477047F8B5044640686B
:101800004FF48273984221D1A0684FF48065B0F5FF
:10181000004F01D0A8420AD12068066826F0400691
:1018200006606068984211D1A068A8420ED000926C
:101830000B4600228021204600F03AF8002804D010
:10184000606D40F0200060650320F8BD00920B46FB
:1018500000220121EFE7000038B504461248134B7F
:101860000068B0FBF3F04FF47A735843009060685F
:10187000B0F5827F0DD10B460092002280212046D8
:1018800000F016F870B1606D40F020006065032034
:1018900038BD009830B1401E009020688068C04379
:1018A0000006F6D5002038BD0C00002000366E0181
:1018B0002DE9F0411D4617460E460446DDF8188016
:1018C00008E0681C06D0FEF761FEA0EB0800A84205
:1018D0000BD255B12068806836EA000030D0002075
:1018E000B842EED10020BDE8F0812068416821F0C7
:1018F000E00141606068B0F5827F0BD1A068B0F56F
:10190000004F02D0B0F5806F04D12068016821F04B
:1019100040010160A06AB0F5005F09D1206801684C
:1019200021F4005101602068016841F40051016018
:10193000012084F85100002084F850000320D2E7F1
:101940000120CDE77047FEF727BE000030B593B009
:1019500030216846FEF77EFC14210CA8FEF77AFCC5
:101960001A480025016841F080510160006800F0CC
:10197000805011901648016841F4404101600068B0
:10198000022400F4404011900120039010200490A4
:10199000009406940820CDE90750B420CDE909044D
:1019A00004200B906846FEF7B5FFFEF78FFE0CA9EA
:1019B0000F2081E831004FF4A0500F90E00210900A
:1019C00005210CA8FEF7BAFE13B030BD4038024026
:1019D000007000400548016841F47001016003494E
:1019E0004FF00060803908607047000088ED00E02B
:1019F000F0B50268254C264D264E274F274B4FF059
:101A0000804CA04209D0604507D0A84205D0B04222
:101A100003D0B84201D0984204D122F0700E4A6837
:101A200042EA0E02A0421BD0604519D0A84217D04E
:101A3000B04215D0B84213D0984211D0184DA842E8
:101A40000ED0184DA8420BD0174DA84208D0174D04
:101A5000A84205D0164DA84202D0164DA84203D187
:101A600022F44075CA682A434D6922F080022A4355
:101A700002608A68C2620A688262A04201D098420B
:101A800001D10969016301214161F0BD00000140FC
:101A90000004004000080040000C00400004014029
:101AA000004001400044014000480140001800404F
:101AB000001C00400020004010B501F01F03012170
:101AC000046A99408C430462016A9A40114301629E
:101AD00010BD10B5846842EA032224F47F440A430F
:101AE0002243826010BD826822F070020A4342F0F5
:101AF0000701816070470000F0B5026A22F0010220
:101B00000262036A42688469124E24F073050C680D
:101B10002C4323F002058B682B430D4DA84201D0C6
:101B2000B04205D123F00807CB683B4323F0040300
:101B3000A84201D0B04205D14D6922F4407215434C
:101B40008A692A4342608461496841630362F0BD47
:101B50000000014000040140F0B5026A22F01002CA
:101B60000262026A436884690D6824F4E64444EA28
:101B700005248D6822F0200242EA05120F4D104E16
:101B8000A84201D0B04206D1CF6822F0800242EADA
:101B9000071222F04002A84201D0B04207D14D699D
:101BA00023F4406343EA85038D6943EA8503436078
:101BB0008461496881630262F0BD00000000014059
:101BC00000040140F0B5026A22F480720262026AE7
:101BD0004368C46922F4007224F073050C68124E45
:101BE0002C438D6842EA05220E4DA84201D0B04236
:101BF00006D1CF6822F4006242EA072222F4806212
:101C0000A84201D0B04207D14D6923F4405343EAC2
:101C100005138D6943EA05134360C4614968C163D4
:101C20000262F0BD000001400004014030B5026ACC
:101C300022F480520262046A4268C3690D6823F488
:101C4000E64343EA05238D6824F4005444EA05344E
:101C5000084DA84202D0084DA84204D14D6922F493
:101C6000804242EA85124260C361496801640462AD
:101C700030BD0000000001400004014010B5036ABF
:101C8000046A24F001040462846924F0F00444EA44
:101C9000021423F00A020A438461026210BD10B5E7
:101CA000036A23F0100303628369046A23F4704318
:101CB00043EA023224F0A00343EA01118261016287
:101CC00010BD00002DE9F041044600680169E2689A
:101CD00021F44051114301612169A068E269084380
:101CE0006169114308432168CA6849F20C639A4349
:101CF0000243CA6020684169A26921F4407111431E
:101D00004161E069192764253226B0F5004F354A54
:101D1000354920684FF0000806D0884201D0904233
:101D200036D1FEF7B5FD35E0884201D0904202D1B0
:101D3000FEF7AEFD01E0FEF79BFD61684A18A0FBCF
:101D4000070148EB0803FEF74DFA0146B0FBF5F03A
:101D50000201B1FBF5F06FF01803584301EB80006E
:101D600006EBC000B0FBF5F000F0F80002EB40021B
:101D7000B1FBF5F0584301EB800006EBC000B0FB6F
:101D8000F5F000F00700216810448860BDE8F0819C
:101D9000FEF76EFD61688B0F8A00A0FB0701FEF75E
:101DA00021FA0146B0FBF5F06FF01802504301EB49
:101DB000800006EB0010B0FBF5F000F0F002B1FB84
:101DC000F5F002EB0012B1FBF5F06FF01803584389
:101DD00001EB800006EB0010B0FBF5F000F00F0007
:101DE000D1E7000000140140001001402DE9F0414E
:101DF00004460068C16821F00C01C16021680869CF
:101E0000E56820F47C52D4E906031843236A2B4387
:101E10001843104340F4006008612068C16849F22B
:101E20000C6291432369A2681A4363690B431A4306
:101E300042F40041C1602068416921F44071416170
:101E40001D4920680027192664254FF03208884272
:101E500002D01A49884202D1FEF71AFD01E0FEF7CE
:101E600007FD61684A18A0FB060147EB0703FEF770
:101E7000B9F90146B0FBF5F00301B1FBF5F06FF0E5
:101E80001802504301EB800008EBC000B0FBF5F0F6
:101E900000F0F80003EB4003B1FBF5F0504301EB19
:101EA000800008EBC000B0FBF5F0216800F00700EF
:101EB00018448860BDE8F081001001400014014022
:101EC0002DE9F041984617460E460446069D25E04A
:101ED000681C23D02DB1FEF759FBA0EB0800A842E7
:101EE0001CD92068C16821F08001C1602068C168E8
:101EF00021F02001C1602068C16821F48071C160B7
:101F00002068416921F001014161012084F83D0010
:101F1000002084F83C000320BDE8F08120680068C0
:101F200036EA000004D00020B842D1D00020F3E708
:101F30000120F9E7FEE700000FB4054B10B503A937
:101F4000044A029800F028F810BC5DF814FB000069
:101F500009210008100000200907090E002804DBF1
:101F600000F1E02080F80014704700F00F0000F14D
:101F7000E02080F8141D704702E008C8121F08C155
:101F8000002AFAD170477047002001E001C1121FFA
:101F9000002AFBD1704700002DE9FF4F89B09B4616
:101FA0000446002506E025280BD05A460B99904799
:101FB000641C6D1C20780028F5D10DB02846BDE8C2
:101FC000F08F0027B8460122474900E0074314F884
:101FD000013F203B02FA03F00842F7D120782E2877
:101FE00019D114F8010F47F004072A280ED06FF01A
:101FF0002F022078A0F1300109290CD808EB8801C4
:1020000002EB410100EB0108641CF2E70A98641C32
:1020100050F8048B0A9020780028CED0642808D08D
:10202000692806D075281ED05A460B9990476D1C1A
:1020300058E00A994FF00A0901C90A91002802DA0A
:1020400040422D2102E0390504D52B218DF82010C6
:10205000012103E0F90704D02021F7E78A4608AE02
:102060000DE00021FAE70A994FF00A0901C90A9127
:10207000F7E74946FEF7F9F8303106F8011D002868
:10208000F7D1ADEB060000F12009780701D44FF03D
:102090000108C84502DDA8EB090000E000208046E9
:1020A000002706E008A85A46C05D0B9990476D1CB2
:1020B0007F1C5745F6DB04E030205A460B999047C9
:1020C0006D1CB8F10001A8F10108F5DC05E016F877
:1020D000010B5A460B9990476D1CB9F10001A9F10B
:1020E0000109F4DC641C65E70928010010B5FEF75E
:1020F00031F9BDE81040FEF725B9002000BF401CB3
:10210000C0B20A28FAD3704713B54FF6FF73012205
:1021100069460248FFF746FA00981CBDEC00002013
:10212000ADF5107DFEF740FAFFF710FCFFF798FAC7
:10213000FFF704FB2F482E49002401604FF4E131E2
:10214000C0E901140821C460C0E904418461C4618C
:102150000462FFF7C7F9FFF70FFB2648264940380E
:1021600001602649C0E901140C21C460C0E90441A2
:102170008461C461FFF750F91E4800218038FFF7E1
:1021800029F91FA0FFF7D8FEFFF7B0FFDFF888801E
:1021900042F210750122202144464046FEF7F0F934
:1021A000002100BF491C89B2A942FAD30022202194
:1021B0002046FEF7E5F9002000BF401C80B2A8428F
:1021C000FAD300246E464FF4907700BFFEF794F8E0
:1021D00026F81400641CA4B2BC42F7D30A20FEF710
:1021E000C5F8BDF82C110DA0FFF7A6FED2E7000040
:1021F00000100140EC000020004C004040420F0065
:102200000A0D205541525420546573742050617357
:102210007365647E200A0D000018024025640A00E0
:102220000000000000000000010203040607080986
:1022300000000000010203045822000800000020F2
:1022400014000000781F00086C2200081400002011
:102250001C050000881F000801000000100000009D
:0C226000000000000024F400000000005A
:04000005080001AD41
:00000001FF
